{
  "contractName": "TimeStamp",
  "abi": [
    {
      "constant": true,
      "inputs": [],
      "name": "Time_call",
      "outputs": [
        {
          "name": "",
          "type": "uint256"
        }
      ],
      "payable": false,
      "stateMutability": "view",
      "type": "function"
    }
  ],
  "bytecode": "0x6080604052348015600f57600080fd5b50607d8061001e6000396000f3fe6080604052348015600f57600080fd5b506004361060285760003560e01c80630326103014602d575b600080fd5b60336049565b6040518082815260200191505060405180910390f35b60004290509056fea165627a7a72305820e46e85d422b56886bb7bee295a153ef375056f861ec80aa9db93eb23e32a7a2a0029",
  "source": "pragma solidity >=0.4.21 <0.7.0;\n\ncontract TimeStamp {\n  function Time_call() public view returns (uint256){\n    return now;\n  }\n}",
  "sourcePath": "/home/kristjan/git/sovrython/rsk-next/contracts/TimeStamp.sol",
  "compiler": {
    "name": "solc",
    "version": "0.5.7+commit.6da8b019.Emscripten.clang"
  },
  "schemaVersion": "3.4.1",
  "updatedAt": "2021-06-15T18:26:39.090Z",
  "networkType": "ethereum",
  "devdoc": {
    "methods": {}
  },
  "userdoc": {
    "methods": {}
  }
}