{
  "contractName": "LightningInvoiceStorage",
  "abi": [
    {
      "constant": false,
      "inputs": [
        {
          "internalType": "string",
          "name": "invoice",
          "type": "string"
        }
      ],
      "name": "addNewInvoice",
      "outputs": [],
      "payable": false,
      "stateMutability": "nonpayable",
      "type": "function"
    },
    {
      "constant": true,
      "inputs": [],
      "name": "get",
      "outputs": [
        {
          "internalType": "string[]",
          "name": "",
          "type": "string[]"
        }
      ],
      "payable": false,
      "stateMutability": "view",
      "type": "function"
    }
  ],
  "bytecode": "0x608060405234801561001057600080fd5b50610502806100206000396000f3fe608060405234801561001057600080fd5b50600436106100365760003560e01c80636d4ce63c1461003b578063a038b61614610059575b600080fd5b610043610075565b604051610050919061039c565b60405180910390f35b610073600480360361006e9190810190610299565b61015e565b005b60606000805480602002602001604051908101604052809291908181526020016000905b82821015610155578382906000526020600020018054600181600116156101000203166002900480601f0160208091040260200160405190810160405280929190818152602001828054600181600116156101000203166002900480156101415780601f1061011657610100808354040283529160200191610141565b820191906000526020600020905b81548152906001019060200180831161012457829003601f168201915b505050505081526020019060010190610099565b50505050905090565b600081908060018154018082558091505090600182039060005260206000200160009091929091909150908051906020019061019b9291906101a0565b505050565b828054600181600116156101000203166002900490600052602060002090601f016020900481019282601f106101e157805160ff191683800117855561020f565b8280016001018555821561020f579182015b8281111561020e5782518255916020019190600101906101f3565b5b50905061021c9190610220565b5090565b61024291905b8082111561023e576000816000905550600101610226565b5090565b90565b600082601f83011261025657600080fd5b8135610269610264826103eb565b6103be565b9150808252602083016020830185838301111561028557600080fd5b61029083828461046c565b50505092915050565b6000602082840312156102ab57600080fd5b600082013567ffffffffffffffff8111156102c557600080fd5b6102d184828501610245565b91505092915050565b60006102e68383610363565b905092915050565b60006102f982610427565b610303818561044a565b93508360208202850161031585610417565b8060005b85811015610351578484038952815161033285826102da565b945061033d8361043d565b925060208a01995050600181019050610319565b50829750879550505050505092915050565b600061036e82610432565b610378818561045b565b935061038881856020860161047b565b610391816104ae565b840191505092915050565b600060208201905081810360008301526103b681846102ee565b905092915050565b6000604051905081810181811067ffffffffffffffff821117156103e157600080fd5b8060405250919050565b600067ffffffffffffffff82111561040257600080fd5b601f19601f8301169050602081019050919050565b6000819050602082019050919050565b600081519050919050565b600081519050919050565b6000602082019050919050565b600082825260208201905092915050565b600082825260208201905092915050565b82818337600083830152505050565b60005b8381101561049957808201518184015260208101905061047e565b838111156104a8576000848401525b50505050565b6000601f19601f830116905091905056fea365627a7a72315820b6fd52b224f1ca6a772fa10c2255116c391cf136c10c6ce2c4b767f8523b064a6c6578706572696d656e74616cf564736f6c63430005100040",
  "source": "pragma solidity >=0.4.0 <0.7.0;\npragma experimental ABIEncoderV2;\n\ncontract LightningInvoiceStorage {\n    string[] invoices;\n\n    function addNewInvoice(string memory invoice) public {\n        invoices.push(invoice);\n    }\n\n    function get() public view returns(string[] memory) {\n        return invoices;\n    }\n}",
  "sourcePath": "/home/kristjan/git/sovrython/smart-contracts/contracts/LightningInvoiceStorage.sol",
  "compiler": {
    "name": "solc",
    "version": "0.5.16+commit.9c3226ce.Emscripten.clang"
  },
  "schemaVersion": "3.4.1",
  "updatedAt": "2021-06-27T16:30:25.966Z",
  "devdoc": {
    "methods": {}
  },
  "userdoc": {
    "methods": {}
  }
}